:020000040000fa
:080000000002040000000000f2
:020000040000fa
:04000800740300007d
:020000040000fa
:04000c007403000079
:020000040000fa
:040010007403000075
:020000040000fa
:040014007403000071
:020000040000fa
:04001800740300006d
:020000040000fa
:04001c007403000069
:020000040000fa
:040020007403000065
:020000040000fa
:040024007403000061
:020000040000fa
:04002800740300005d
:020000040000fa
:04002c007403000059
:020000040000fa
:040030007403000055
:020000040000fa
:04003400560300006f
:020000040000fa
:04003800740300004d
:020000040000fa
:04003c007403000049
:020000040000fa
:040040007403000045
:020000040000fa
:040044007403000041
:020000040000fa
:04004800220300008f
:020000040000fa
:04004c007403000039
:020000040000fa
:040050007403000035
:020000040000fa
:040054007403000031
:020000040000fa
:04005800740300002d
:020000040000fa
:04005c00fa020000a4
:020000040000fa
:040060007403000025
:020000040000fa
:040064007403000021
:020000040000fa
:04006800740300001d
:020000040000fa
:04006c007403000019
:020000040000fa
:040070007403000015
:020000040000fa
:040074007403000011
:020000040000fa
:04007800740300000d
:020000040000fa
:04007c007403000009
:020000040000fa
:040080007403000005
:020000040000fa
:040084007403000001
:020000040000fa
:0400880074030000fd
:020000040000fa
:04008c0074030000f9
:020000040000fa
:0400900074030000f5
:020000040000fa
:040094002a0300003b
:020000040000fa
:0400980074030000ed
:020000040000fa
:04009c0074030000e9
:020000040000fa
:0400a00074030000e5
:020000040000fa
:0400a40074030000e1
:020000040000fa
:0400a80074030000dd
:020000040000fa
:0400ac0074030000d9
:020000040000fa
:0400b00074030000d5
:020000040000fa
:0400b40074030000d1
:020000040000fa
:0400b80074030000cd
:020000040000fa
:0400bc0074030000c9
:020000040000fa
:0400c00074030000c5
:020000040000fa
:0400c40074030000c1
:020000040000fa
:0400c80074030000bd
:020000040000fa
:0400cc0074030000b9
:020000040000fa
:0400d00074030000b5
:020000040000fa
:0400d40074030000b1
:020000040000fa
:0400d80074030000ad
:020000040000fa
:0400dc0074030000a9
:020000040000fa
:0400e00074030000a5
:020000040000fa
:0400e40074030000a1
:020000040000fa
:0400e800740300009d
:020000040000fa
:0400ec007403000099
:020000040000fa
:0400f0007403000095
:020000040000fa
:0400f4007403000091
:020000040000fa
:0400f800740300008d
:020000040000fa
:0400fc007403000089
:020000040000fa
:040100007403000084
:020000040000fa
:040104007403000080
:020000040000fa
:04010800740300007c
:020000040000fa
:04010c007403000078
:020000040000fa
:040110007403000074
:020000040000fa
:040114007403000070
:020000040000fa
:04011800740300006c
:020000040000fa
:04011c007403000068
:020000040000fa
:040120007403000064
:020000040000fa
:040124007403000060
:020000040000fa
:04012800740300005c
:020000040000fa
:04012c007403000058
:020000040000fa
:040130007403000054
:020000040000fa
:040134007403000050
:020000040000fa
:04013800740300004c
:020000040000fa
:04013c007403000048
:020000040000fa
:040140007403000044
:020000040000fa
:040144007403000040
:020000040000fa
:04014800740300003c
:020000040000fa
:04014c007403000038
:020000040000fa
:040150007403000034
:020000040000fa
:040154007403000030
:020000040000fa
:04015800740300002c
:020000040000fa
:04015c007403000028
:020000040000fa
:040160007403000024
:020000040000fa
:040164007403000020
:020000040000fa
:04016800740300001c
:020000040000fa
:04016c007403000018
:020000040000fa
:040170007403000014
:020000040000fa
:040174007403000010
:020000040000fa
:04017800740300000c
:020000040000fa
:04017c007403000008
:020000040000fa
:040180007403000004
:020000040000fa
:040184007403000000
:020000040000fa
:0401880074030000fc
:020000040000fa
:04018c0074030000f8
:020000040000fa
:0401900074030000f4
:020000040000fa
:0401940074030000f0
:020000040000fa
:0401980074030000ec
:020000040000fa
:04019c0074030000e8
:020000040000fa
:0401a00074030000e4
:020000040000fa
:0401a40074030000e0
:020000040000fa
:0401a80074030000dc
:020000040000fa
:0401ac0074030000d8
:020000040000fa
:0401b00074030000d4
:020000040000fa
:0401b40074030000d0
:020000040000fa
:0401b80074030000cc
:020000040000fa
:0401bc0074030000c8
:020000040000fa
:0401c00074030000c4
:020000040000fa
:0401c40074030000c0
:020000040000fa
:0401c80074030000bc
:020000040000fa
:0401cc0074030000b8
:020000040000fa
:0401d00074030000b4
:020000040000fa
:0401d40074030000b0
:020000040000fa
:0401d80074030000ac
:020000040000fa
:0401dc0074030000a8
:020000040000fa
:0401e00074030000a4
:020000040000fa
:0401e40074030000a0
:020000040000fa
:0401e800740300009c
:020000040000fa
:0401ec007403000098
:020000040000fa
:0401f0007403000094
:020000040000fa
:0401f4007403000090
:020000040000fa
:0401f800740300008c
:020000040000fa
:0401fc007403000088
:020000040000fa
:040200007403000083
:020000040000fa
:04020400740300007f
:020000040000fa
:04020800740300007b
:020000040000fa
:04020c007403000077
:020000040000fa
:040210007403000073
:020000040000fa
:04021400740300006f
:020000040000fa
:04021800740300006b
:020000040000fa
:04021c007403000067
:020000040000fa
:040220007403000063
:020000040000fa
:04022400740300005f
:020000040000fa
:04022800740300005b
:020000040000fa
:04022c007403000057
:020000040000fa
:040230007403000053
:020000040000fa
:04023400740300004f
:020000040000fa
:04023800740300004b
:020000040000fa
:04023c007403000047
:020000040000fa
:040240007403000043
:020000040000fa
:04024400740300003f
:020000040000fa
:04024800740300003b
:020000040000fa
:04024c007403000037
:020000040000fa
:040250007403000033
:020000040000fa
:04025400740300002f
:020000040000fa
:04025800740300002b
:020000040000fa
:04025c007403000027
:020000040000fa
:040260007403000023
:020000040000fa
:04026400740300001f
:020000040000fa
:04026800740300001b
:020000040000fa
:04026c007403000017
:020000040000fa
:040270007403000013
:020000040000fa
:04027400740300000f
:020000040000fa
:04027800740300000b
:020000040000fa
:04027c007403000007
:020000040000fa
:040280007403000003
:020000040000fa
:100400006f0421000eff2c000e0188000000000088
:10041000000020000000e000020032000001200087
:100420002002880014000700b10007000000e0006f
:1004300003003a00e0242100010020000200370000
:100440000000200001002000810f70000100320038
:100450000f000700000020000000e0000200320052
:100460000000020000000000d20e020000000000a8
:100470000040da000000fe00200020000000e00044
:1004800002003200100020009001880000000600e9
:10049000a1028800800478000000eb001f003700f4
:1004a000e284440054a0b4009905ba00e2844400f8
:1004b00054a0b4009906ba00e284440054a0b400e9
:1004c0000006eb00476fde00fd07b200ae018800ba
:1004d000636ce10003003a000ad801000000eb0061
:1004e0000e003700606ce10008003a00004deb00a0
:1004f0000a05e800020039003420ec000af0a000f0
:100500008b05e900f9ff3e00040037006168e10057
:10051000010032000086eb000b00070019c7ba008b
:100520000e04e0001905ba0003003a000a00e000da
:10053000dbff3a0000000600fe07b200ae028800b2
:100540008a047800f5ff37000cd0a300e20f4d00bd
:100550001c00390089027800354dba000a05e80010
:10056000020039003420ec000af0a0008b05e900fd
:100570000f003200254dba000a05e80002003900dc
:100580003420ec000af0a0008b05e90008003200de
:100590000c00e0000600320015cdba000a05e800a4
:1005a000020039003420ec000af0a0008b05e900bd
:1005b0008984e80054a0b4000b00e000e2ff3a0098
:1005c000000006009902ba00055d78008b05e9007d
:1005d000f7ff3200c82ade00055d78008b05e900d0
:1005e000f3ff32000c00e000f1ff320019ddba0029
:1005f000eeff3700801f78000000fa0001a8a90074
:10060000001880002082880010188000d0818800a7
:1006100020188000e081880030188000f081880078
:1006200040188000008288005018800010828800e6
:1006300010c0b3000ff0b7000080fa004f00780040
:10064000004006000000fa000108a9000080fa003e
:10065000004006003600f800809fbe00829fbe006a
:10066000849fbe00869fbe000000fa000368a900b8
:10067000008080001180800061004000e080480020
:100680000080880011808800e0010700480707000b
:100690000080fa004f03be004f02be004f01be00b3
:1006a0004f00be003600f900004006003600f8009a
:1006b000809fbe00829fbe00849fbe00869fbe00ba
:1006c0000000fa000068a900f70407000080fa00a3
:1006d0004f03be004f02be004f01be004f00be00e0
:1006e0003600f900004006000040da000000fe007d
:1006f0000000050003f0a200889fbe008a9fbe0094
:100700008c1f78001b010700220133006450e100b8
:100710004f0032006420e1005200320003826c007e
:1007200007003b000905d0000306d000820f5400eb
:100730000c065d00020039000200320089017800d9
:10074000030678008582550004003d000003fd008b
:100750008103fd008502ea008b854200840f720050
:1007600002003b0060001000e08018006011b8003b
:100770000005eb007a28e1000a0039000600780045
:10078000c75ddd00f707b200878075002d003700d8
:10079000828171000a017800610560008180d100ca
:1007a0000080d3008502e900f9ff3b000604400009
:1007b0008784480002003b0060041400e0841c00b1
:1007c0000988a300070032008a81710082817100cc
:1007d000610164008904d1000884d3008b05e8001e
:1007e000170037000978a30013003a000b00e0005f
:1007f000130034008b05e9000804440089844c0090
:100800000a4474000978a3000d003a000b00e000d0
:10081000070034008b05e9000804440089844c007b
:1008200001003a000b0020000978a300f7ff320016
:100830000001eb0002003700828171000a0178009c
:10084000910007000cf0a70001f0a000da003700cb
:100850006420e10002003a00838f6c00da0033006c
:100860000801be000200be00d3003700889fbe0012
:100870008a9fbe008c1f7800be000700c5003300b1
:1008800003866c006450e1002e0032006420e10019
:10089000330032006150e1002f0032006120e1009e
:1008a0003100320085855500eb07b00009002000bb
:1008b00008042000050037000804440089844c0027
:1008c0000a0031000603430087834b0000015300f8
:1008d00081815b00f8ff33000203be000800a00026
:1008e0000804440089844c00f6ff3900c639dd0055
:1008f0008301730001003200130020008904d1003d
:100900000884d3000998a300050032000800a7005e
:100910000300a0008904d1000884d3008b05e800ff
:100920008904d1000884d3000001eb000281d200c9
:100930005500070001f0a1000cf0a70001f0a00095
:100940009d0037006420e1009f0032000801be00d6
:100950000200be00f7ff37006120e1009a0032007c
:100960006000b800f3ff37000000200001f8270006
:10097000f0ff370014002000ca003700f4ff2f00fa
:10098000c80037000001be00650007000470a70022
:1009900003f0a1006509b100160032000d0035001a
:1009a0006828e10006003500f0ff2f00f1ff270066
:1009b0000300e00013003b000100280000000500d8
:1009c00000004000818048008502e900fcff3a00f9
:1009d00008003700f88f420002003c008000eb0066
:1009e000000005008100d1000080d3008502e800ee
:1009f000fcff3a000300e00002003b006000100032
:100a0000e0801800000006000001be00440007005e
:100a10000470a70003f0a10003f8a30013003a003c
:100a20006509b10010003200090035006928e100b5
:100a30000200350001002800000005000000400011
:100a4000818048008502e900fcff3a0000000600b2
:100a5000f88f4200050035008100d1000080d300ee
:100a60008502e800fcff3a00000006008000eb0071
:100a7000000005004f89de0082017800a4003700e5
:100a80006011b800b200370081002000618055007d
:100a90000b003d000b00200061fe2f000100e10073
:100aa0001d00340082817100610164008904d1005d
:100ab0000884d3000000e800faff3a00710020002b
:100ac0006100640003007000020060000900320051
:100ad00061044400e0844c000988a5000500320050
:100ae0008b05e8006808e10002003a008904d100a3
:100af0000884d300f20f20000258e10005003d00f9
:100b0000c75ddd00f907b200898075000800780034
:100b1000000006000bf827008b007800000005009d
:100b2000c70ade00f107b200f50fb200080032007c
:100b3000e1cf4200020032000170a0002400050055
:100b4000810f700001003200040805004400050018
:100b5000810f700002003a00140005008502e900d0
:100b60000000400081c04800fcff3b000170a00075
:100b7000240005000004be00e9ff07000003be00da
:100b80000405be000200be00e5ff0700844f7500ab
:100b9000000006000200be006450e10005003600bf
:100ba0006420e100020036000968a30001003a0059
:100bb0000800be000160a0004f0678004f05be008f
:100bc0004f04be0000000600f0ff2f00f1ff2700d9
:100bd000f9ff3700889fbe008a9fbe008c1f7800f7
:100be000e4ff0700ebff330003866c006450e10074
:100bf000240032006420e100270032006150e1004f
:100c0000220032006120e100210032008b85420089
:100c1000eb07b1000134b800003ab8000804420004
:100c200089844a00013ab8000030b800888040004a
:100c300009014a00040033000000400081804800a0
:100c4000020149008b05e900c909dd00830170003c
:100c50000100320013002000c814de004814dd003b
:100c60004709de001200b200c808de0008847000e8
:100c700085ff070001f0a1000cf0a70001f0a00023
:100c8000cdff37006120e100cfff32000801be0038
:100c90000200be00f7ff37006150e100fcff3a00a0
:100ca000c9ff3700889fbe008a9fbe00841f78005e
:100cb000b0ff07004f00780011003300f0ff2f0055
:100cc000838f6c0006003b00040565000a00a70046
:100cd0000800370009f0a6001000200008003700c7
:100ce000820f5400838f5c00030039001000200045
:100cf00001003e000000200009f0a7000000ea000b
:100d00004f05be004f04be000000e00000000600da
:100d1000881f7800030478000300e00007003d000e
:100d200060001000e080180060011900e0811900e7
:100d300002003b0001f02d00030037000400070013
:100d400008f0a70001f0a0004f04780000000600a2
:100d5000889fbe008a9fbe0000827000040271005e
:100d600004827100260032000004be000200be00b2
:100d70006011b8006b092000950220000182cf00ad
:100d80000a0039000541b1000082cf000700390098
:100d90000541b1000982cf00040039000541b100ce
:100da0000882cf00010039000541b1000542520020
:100db000120032000a003b00828171006101640070
:100dc0008100d1000080d3008984d3000884d3003f
:100dd0008b05e8000442e800f7ff3a0007003700ff
:100de0000804440089844c000000480081804800c9
:100df0008b05e9000442e900f9ff3a0022ff0700f1
:0c0e00004f05be004f04be0000000600bd
:020000040000fa
:100e0c000000fa0010708000620060000000e0003a
:100e1c00a30032000bd0bf000080fb00cf80de00af
:100e2c003201200003002000820f5000838f5800f5
:100e3c00a5003e0000060100130037001c0037001f
:100e4c001d003700290037002a0037003900370011
:100e5c005800370063003700640037006f0037001c
:100e6c00700037007c0037007d0037008a003700a7
:100e7c0097003700960037003f0037004b003700d3
:100e8c002e0037003a0037000030ef000230ef0040
:100e9c000041eb006000b800ab03070012c0b300c8
:100eac006000b800a803070010c0b3000bf0b70037
:100ebc008a000700870037000041eb00000020008b
:100ecc00c1212c00a003070012c0b30060662600ed
:100edc00a12224009c03070030c0b3000bf0b70024
:100eec0064cea90064eea8007a0037007b000700ee
:100efc00780037000041eb0000002000811c2c0022
:100f0c009103070012c0b30000002000411d240013
:100f1c008d03070050c0b3000bf0b7006080800059
:100f2c000000e8006080880064cea90064eea9008f
:100f3c006800370069000700660037000041eb00cd
:100f4c000000200001172c007f03070012c0b30023
:100f5c0000002000011224007b03070030c1b30005
:100f6c000bf0b70064cea90064eea900590037005d
:100f7c005a000700570037000041eb00000020002a
:100f8c0001122c007003070012c0b30000002000f7
:100f9c00011724006c03070010c1b3000bf0b7005d
:100fac0064cea90064eea9004a0037004b0007008c
:100fbc00480037000041eb006000b80062030700f6
:100fcc0012c0b30000002000011724005e030700cc
:100fdc0070c0b3000bf0b70064cea90064eea9009a
:100fec003c0037003d0007003a0037000041eb00a1
:100ffc000000200001172c005303070012c0b3009f
:10100c006000b8005003070090c0b3000bf0b700ad
:10101c0064cea90064eea9002e0037002f00070053
:10102c002c0037000041eb000000200001122c00c6
:10103c004503070012c0b3000000200001122c0071
:10104c0041030700b0c0b3000bf0b70064cea90099
:10105c0064eea9001f003700200007001d003700b8
:10106c000041eb00000020000112240036030700b1
:10107c0012c0b3000000200001122400320307004c
:10108c00d0c0b3000bf0b70064cea90064eea90089
:10109c00000000000f003700100007000d003700a3
:1010ac000041eb006000b8002703070012c0b3003a
:1010bc006000b8002403070064cea80064eea90009
:1010cc000b70ef0003003700000000000100370038
:1010dc00000000000080fa00000006000200fa0088
:1010ec00881f78000040eb00004f78007081800072
:1010fc008181800018c0b30002002000831c2400f2
:10110c0019fe07000000e000010035000044eb0070
:10111c000804e0000e003200308180004181800024
:10112c0018c0b30002002000831c24000efe070030
:10113c000000e000010035000044eb000804e00072
:10114c000300320040c0b300004f7800d7003700d6
:10115c00708180008181800018c0b30002002000e3
:10116c00031f240000fe07000000e0000100350012
:10117c000044eb000804e0001900320050818000ac
:10118c006181800018c0b30002002000031a240003
:10119c00f7fd07000000e00001003c000044eb00fc
:1011ac000804e0000e003200308180004181800094
:1011bc0018c0b30002002000031f2400ecfd070040
:1011cc000000e00001003c000044eb000804e000db
:1011dc000300320030c0b300004f7800b30037007a
:1011ec00708180008181800018c0b3000200200053
:1011fc00031f2400defd07000000e00001003c009e
:10120c000044eb000804e00019003200508180001b
:10121c006181800018c0b30002002000031a240072
:10122c00d3fd07000000e00001003c000044eb008f
:10123c000804e0000e003200308180004181800003
:10124c0018c0b30002002000031f2400c6fd0700d5
:10125c000000e000010035000044eb000804e00051
:10126c000300320020c0b300004f78008f0037001d
:10127c00508180006181800018c0b3000200200002
:10128c00031f2400b8fd07000000e000010035003a
:10129c000044eb000804e0000300320040c0b3003f
:1012ac00004f78008100370090818000a181800080
:1012bc0018c0b3000200200003122400aafd07008e
:1012cc000000e000010035000044eb000804e000e1
:1012dc001e003200b0818000c181800018c0b300b4
:1012ec0002002000031224009ffd07000000e00014
:1012fc00010035000044eb000804e000130032004c
:10130c0094818000a5818000b0818000c181800023
:10131c0018c0b3000001be000400be0092fd07001f
:10132c000000e000010035000044eb000804e00080
:10133c000300320060c0b300004f78005b00370040
:10134c0070c0b300004f78005800370090818000c7
:10135c00a181800018c0b3000200200003172400f4
:10136c0081fd07000000e000010035000044eb00a7
:10137c000804e0000300320060c0b300004f7800a6
:10138c004a003700b0818000c181800018c0b300d2
:10139c00020020000317240073fd07000000e0008a
:1013ac00010035000044eb000804e00003003200ab
:1013bc0070c0b300004f78003c0037007081800093
:1013cc008181800018c0b300020020008324240017
:1013dc0065fd07000000e000010035000044eb0053
:1013ec000804e0002c003a005081800061818000ec
:1013fc0018c0b30002002000032724005afd070088
:10140c000000e000010035000044eb000804e0009f
:10141c0021003a00308180004181800018c0b30067
:10142c0002002000832424004ffd07000000e00090
:10143c00010035000044eb000804e00016003a00ff
:10144c00b0818000c181800018c0b3000200200070
:10145c000322240044fd07000000e00001003500d9
:10146c000044eb000804e0000b003a00908180007f
:10147c00a181800018c0b3000200200003222400c8
:10148c0039fd07000000e000010035000044eb00ce
:10149c000804e0000300320010c0b300004f7800d5
:1014ac00020037000040eb00004f78001e4078002f
:1014bc000004e00003003a0020c0b3000af0b700bb
:1014cc00380037001e407800e14f500003003a000e
:1014dc0040c0b3000af0b700320037001e4078005d
:1014ec00e74f500003003a0000c1b3000af0b70008
:1014fc002c0037001e407800e64f500003003a00e5
:10150c0020c1b3000af0b700260037001e40780057
:10151c00e34f500003003a0060c0b3000af0b7007c
:10152c00200037001e407800e24f500003003a00c4
:10153c0080c0b3000af0b7001a0037001e407800d4
:10154c00e44f500007003a006080800061006000aa
:10155c000000e00003003a00a0c0b3000af0b7009e
:10156c00100037001e407800e44f50000d003a0088
:10157c006180800010002800008060000000e00006
:10158c0004003d000000e900e1ff2f000080700026
:10159c000000e800e10f500002003a00c0c0b300a8
:1015ac000af0b7000ad0bf008080fb000bd0bf0050
:1015bc000080fb000000e900808f50000200320028
:1015cc000ad0bf000bf0b7004f0478000080fa007f
:1015dc00000006000000fa0013e1a90011e1a900c7
:1015ec001061a8001021a90081088000f0fc2f00d8
:1015fc0000806000800888000a21ef000621ef00bf
:10160c00c0032000700888000c21ef0021428000ec
:10161c0080ff2f00008060000000a00020428800a6
:10162c000108a9002108a80011e1a8000080fa0017
:10163c00000006000000fa0005e1a9000421a90041
:10164c000068a9002068a80005e1a800000020009f
:10165c00812424000d0007000080fa000000060021
:10166c000000fa001fe1a9001e21a9000368a900cf
:10167c002368a8001fe1a80000002000a14f24004f
:10168c00760007000080fa00000006000400fa0053
:10169c00881f7800008fbe0021088000f0fc2f000e
:1016ac0000806000200888001e0178009e019000d8
:1016bc000068290081c1240069fc070018c0b30030
:1016cc0002f02f00f3772400a9fc07000000e000d3
:1016dc0001003c000044eb000804e0005400320020
:1016ec0021088000f0fc2f00008060000040a0006a
:1016fc00200888001e0178009e01900000682900d7
:10170c0081c1240056fc07000200200003102400b5
:10171c0053fc070018c0b30002f02f00f37724002d
:10172c0093fc07000000e00001003c000044eb00cb
:10173c000804e0003200320021088000f0fc2f0089
:10174c00008060000050a000200888001e01780076
:10175c009e0190000068290081c1240040fc070014
:10176c0002002000032824003dfc070018c0b30031
:10177c0002f02f00f37724007dfc07000000e0004e
:10178c0001003c000044eb000804e00010003200b3
:10179c002108800000032000010070002008880050
:1017ac001e0178009e0190000068290081c1240070
:1017bc002bfc0700020020000338240028fc070043
:1017cc006dfc07000000780010088800200037002e
:1017dc001e0178009e0190000068290081c1240040
:1017ec001ffc070002002000032824001cfc07003b
:1017fc0061fc070000007800100888001400370016
:10180c001e0178009e0190000068290081c124000f
:10181c0013fc0700020020000310240010fc07003a
:10182c0055fc0700000078001008880008003700fd
:10183c001e0178009e0190000068290081c12400df
:10184c0007fc07004cfc070000007800100888001b
:10185c004f0478000080fa00000006000400fa0033
:10186c00881f7800008fbe00f1088000f0fc2f006c
:10187c0000806000f00888001e0178009e01900036
:10188c000068290081c12400f5fb070018c0b300d3
:10189c0002f02f00f377240035fc07000000e00075
:1018ac0001003c000044eb000804e000540032004e
:1018bc00f1088000f0fc2f00008060000040a000c8
:1018cc00f00888001e0178009e0190000068290035
:1018dc0081c12400e2fb0700020020000310240059
:1018ec00dffb070018c0b30002f02f00f3772400d1
:1018fc001ffc07000000e00001003c000044eb006e
:10190c000804e00032003200f1088000f0fc2f00e7
:10191c00008060000050a000f00888001e017800d4
:10192c009e0190000068290081c12400ccfb0700b7
:10193c000200200003282400c9fb070018c0b300d4
:10194c0002f02f00f377240009fc07000000e000f0
:10195c0001003c000044eb000804e00010003200e1
:10196c00f10880000003200001007000f0088800de
:10197c001e0178009e0190000068290081c124009e
:10198c00b7fb07000200200003382400b4fb07005b
:10199c00f9fb0700000078001008880020003700d1
:1019ac001e0178009e0190000068290081c124006e
:1019bc00abfb07000200200003282400a8fb070053
:1019cc00edfb0700000078001008880014003700b9
:1019dc001e0178009e0190000068290081c124003e
:1019ec009ffb070002002000031024009cfb070053
:1019fc00e1fb0700000078001008880008003700a1
:101a0c001e0178009e0190000068290081c124000d
:101a1c0093fb0700d8fb0700000078001008880033
:101a2c004f0478000080fa00000006000000fa0065
:101a3c001160800080ff2f00008060001060880023
:101a4c0000fa20002060880023aca800238ca8009a
:101a5c0011618000f03f2f000080600000a0a0000a
:101a6c00106188003000200020618800c3aca80001
:101a7c00c38ca80011668000f03f2f00008060002e
:101a8c0000a0a000106688003000200020668800ae
:101a9c0001eca8000080fa00000006000000fa002b
:101aac00889fbe008a9fbe00f48080000581800064
:101abc00d0808000e180800018c0b3000001be001f
:101acc000400be00a8fb07000000e0000100350088
:101adc000044eb000804e0000f003200d8808000c6
:101aec00e9808000fa8080000b81800008d0bf0064
:101afc000080fb00cf80de00dbfb07000001be0096
:101b0c000a00be00f9fa07000801be0090010700a8
:101b1c00f080880001818800f480800005818000bd
:101b2c00d0808000e180800018c0b3000001be00ae
:101b3c000400be008efb07000000e00001003c002a
:101b4c000044eb000804e0000f003200d880800055
:101b5c00e9808000fa8080000b81800007d0bf00f4
:101b6c000080fb00cf80de00bffb07000001be0041
:101b7c000a00be00dcfa07000801be005c01070089
:101b8c00f080880001818800f08080000181800055
:101b9c0018c0b3006011b80075fb07000000e0002e
:101bac0001003c000044eb000804e000040032009b
:101bbc00c3cca90024eea800c3eca8000300370096
:101bcc00c3eca90024cea800c3cca800f0808000f0
:101bdc000181800030010700020020000322240054
:101bec00f9fb070085fb07000000780030668800d1
:101bfc00b4808000c580800090808000a18080002f
:101c0c0018c0b3000001be000400be0056fb070064
:101c1c000000e000010035000044eb000804e00087
:101c2c000f00320098808000a9808000ba8080006c
:101c3c00cb80800009d0bf000080fb00cf80de008d
:101c4c0089fb07000001be000a00be00a7fa0700ce
:101c5c000801be003e010700b0808800c1808800ea
:101c6c00b4808000c580800090808000a1808000be
:101c7c0018c0b3000001be000400be003cfb07000e
:101c8c000000e00001003c000044eb000804e00010
:101c9c000f00320098808000a9808000ba808000fc
:101cac00cb80800006d0bf000080fb00cf80de0020
:101cbc006dfb07000001be000a00be008afa070097
:101ccc000801be000a010700b0808800c1808800ae
:101cdc00b0808000c180800018c0b3006011b800d3
:101cec0023fb07000000e00001003c000044eb0077
:101cfc000804e0000400320023cca90015eea80073
:101d0c0023eca8000300370023eca90015cea80093
:101d1c0023cca800b0808000c1808000de000700ca
:101d2c000200200003222400a7fb070033fb07005e
:101d3c0000007800306188004f05be004f04be00e3
:101d4c000080fa00000006000600fa00008fbe00ba
:101d5c00424798004e4090000004e00005003a0015
:101d6c001e0178009e019000d2808800e3808800dc
:101d7c00070037004e409000e14f500004003a003d
:101d8c001e0178009e01900092808800a38088003c
:101d9c000080fa00000006001200fa009101070012
:101dac00d00107000bfe070022fe07002cfe0700e7
:101dbc00400107001dff07007e010700000f78009f
:101dcc000000eb00100798000000eb0020079800c3
:101ddc000000eb00300798000000eb004007980073
:101dec000000eb00500798000000eb006007980023
:101dfc006000b80070079800010f980001003700d0
:101e0c0000000000608080006100600000407800ed
:101e1c000004e00002003200254ea800010037004b
:101e2c00254ea900670107000004e000f4ff320012
:101e3c00680107001e007800100078001007980059
:101e4c001e80e80010007800200798009e007800a3
:101e5c006480400010007800300798009e007800e5
:101e6c006680400010007800400798009e007800c3
:101e7c006880400010007800500798009e007800a1
:101e8c006a8040001000780060079800510107003c
:101e9c009e0078006a804000100078008000eb0003
:101eac00f4fa0700323323003305240046fb070005
:101ebc00020020000358240069fa0700d2cc2c0041
:101ecc00c304240040fb070070079800010f980022
:101edc007e0190008e0990000000200081202400db
:101eec005ffa070002002000030a2400fef9070035
:101efc0090818800a18188009e0078006880400055
:101f0c00100078008000eb00dafa0700323323006f
:101f1c00330524002cfb070002002000035824008a
:101f2c004ffa0700d2cc2c00c304240026fb070078
:101f3c0070079800010f98007e0190008e099000a8
:101f4c00000020008120240045fa07000200200038
:101f5c00030a2400e4f9070070818800818188005d
:101f6c009e00780064804000100078008000eb0038
:101f7c00c0fa0700323323003305240012fb07009c
:101f8c00020020000358240035fa0700d2cc2c00a4
:101f9c00c30424000cfb070070079800010f980085
:101fac007e0190008e09900000002000812024000a
:101fbc002bfa070002002000030a2400caf90700cc
:101fcc0050818800618188001e0078001000780024
:101fdc008000eb00a7fa07003233230033052400fe
:101fec00f9fa070002002000035824001cfa07002d
:101ffc00d2cc2c00c3042400f3fa0700700798001d
:10200c00010f98007e0190008e09900000002000c6
:10201c008120240012fa070002002000030a240089
:10202c00b1f9070030818800418188009e0078005a
:10203c0066804000100078008000eb008dfa0700ed
:10204c003233230033052400dffa0700020020009e
:10205c000358240002fa0700d2cc2c00c30424003d
:10206c00d9fa070070079800010f98007e019000c4
:10207c008e0990000000200081202400f8f9070050
:10208c0002002000030a240097f90700b0818800a1
:10209c00c18188005bff37000400fa00881f7800bc
:1020ac00008fbe0018c0b3006011b8001e0078008d
:1020bc009e0090002efa07000000e00001003d0099
:1020cc000044eb000804e000030032001e0078001e
:1020dc009e009000030037001e0078009e009000c8
:1020ec0001f0a2004f0478000080fa000000060006
:1020fc000800fa00881f7800008fbe0022079800a5
:10210c003307980018c0b3002e019000be01900058
:10211c001e0078009e00900015fa07000000e000f9
:10212c0001003c000044eb000804e0000300320016
:10213c001e0078009e009000020037002e009000d8
:10214c00be0090004f0478000080fa0000000600ea
:10215c000800fa00881f7800008fbe002207980044
:10216c003307980018c0b3002e019000be019000f8
:10217c001e0078009e009000fbf907000000e000b4
:10218c00010035000044eb000804e00003003200bd
:10219c001e0078009e009000020037002e00900078
:1021ac00be0090004f0478000080fa00000006008a
:1021bc000c00fa00881f7800008fbe0022079800e0
:1021cc0033079800440798005507980018c0b300cf
:1021dc004e019000de0190001e0078009e009000e1
:1021ec00e3f907000000e00001003c000044eb00b4
:1021fc000804e000040032004e019000de01900063
:10220c00028fbe000e00370018c0b3002e019000e4
:10221c00be0190001e0078009e009000d2f90700cd
:10222c000000e000010035000044eb000804e00071
:10223c00030032002e019000be019000028fbe0000
:10224c001e0078009e0090004f0478000080fa0079
:10225c00000006000400fa00008fbe00b2fd200052
:10226c00930424001e0078009e0090007cf9070067
:10227c00020020004333240053fa07000080fa00c8
:10228c00000006000400fa00008fbe00b2fd200022
:10229c00930424001e0078009e0090004afa070068
:1022ac0002002000433324006df907000080fa007f
:1022bc00000006000000fa0021e3a9002143a80059
:1022cc0001198000f0cf2f000080600000198800f9
:1022dc002043a90001198000000e200001007000ad
:1022ec000019880011198000f0ff210000806000a7
:1022fc00101988002343a80011198000f0cf2f007b
:10230c0000806000101988001119800030f82f002f
:10231c00008060004001b300101988002203a9005e
:10232c002223a90025e3a900f0c0b30024e3b700e1
:10233c0021198000f00f2e008080600000f020003a
:10234c0001007000201988003303a9002e0ea8008c
:10235c002f6ea8006f2ea8004feea8000f8ea800bd
:10236c001e2ea80030c3a8003163a8002e03a800bd
:10237c003063a8003143a80031e3a8004119800064
:10238c0000fc2f00008060004019880028e3a900a1
:10239c0001a8a90021a8a80021e3a8000080fa0048
:1023ac00000006000000fa002023a8000080fa00bc
:1023bc00000006000000fa00a00321000080fa00d3
:1023cc00000006000000fa000fd0bf000080fa00e9
:1023dc00000006000000fa000f70ef000080fa0009
:1023ec00000006000000fa00f0032000303a8800dc
:1023fc00213a8000f0f32f0000806000203a880022
:10240c00213a800000fe2f00008060000000a00038
:10241c00203a88001200200080072000a10920002b
:10242c003374200080497800814978008249780013
:10243c00103a8000000178000200a0006004200027
:10244c0071052000237420008049780081497800b0
:10245c008249780000000000113a8000000027003b
:10246c008080600000002100808f5000faff3a004d
:10247c0000000000113a8000000220000080600083
:10248c000000e000fbff32000080fa0000000600b4
:020000040000fa
:10249c003a1000000c000000800000000e1000003c
:1024ac000200000080000000061000000400000084
:1024bc00820000000a0a07000c0000001010000047
:1024cc002a00000080000000001000000600000040
:1024dc00800000000a1000000400000080000000d2
:0424ec0000000000ec
:020000040000fa
:1024f0000000fa000e2eef001e2eef002e2eef0031
:102500003e2eef004e2eef005e2eef006e2eef00ff
:10251000002ea800214ea90060cea90060eea900ff
:1025200011cea90011eea90020cea90020eea9002d
:082530000080fa000000060023
:020000040000fa
:02000004000af0
:04afe000cfff00009f
:020000040000fa
:02000004000af0
:04afe400ffff00006b
:020000040000fa
:02000004000af0
:04afe8007fff0000e7
:020000040000fa
:02000004000af0
:04afec005fff000003
:020000040000fa
:02000004000af0
:04aff00038ff000026
:020000040000fa
:02000004000af0
:04aff400ffff00005b
:00000001FF
